{
  "_format": "hh-sol-artifact-1",
  "contractName": "OTC",
  "sourceName": "contracts/OTC.sol",
  "abi": [
    {
      "anonymous": false,
      "inputs": [
        {
          "indexed": true,
          "internalType": "address",
          "name": "by",
          "type": "address"
        },
        {
          "indexed": false,
          "internalType": "address",
          "name": "to",
          "type": "address"
        }
      ],
      "name": "Whitelisted",
      "type": "event"
    },
    {
      "anonymous": false,
      "inputs": [
        {
          "indexed": true,
          "internalType": "address",
          "name": "from",
          "type": "address"
        },
        {
          "indexed": false,
          "internalType": "address",
          "name": "to",
          "type": "address"
        },
        {
          "indexed": false,
          "internalType": "uint256",
          "name": "amount",
          "type": "uint256"
        }
      ],
      "name": "Withdrawn",
      "type": "event"
    },
    {
      "anonymous": false,
      "inputs": [
        {
          "indexed": true,
          "internalType": "address",
          "name": "from",
          "type": "address"
        },
        {
          "indexed": false,
          "internalType": "address",
          "name": "to",
          "type": "address"
        },
        {
          "indexed": false,
          "internalType": "uint256",
          "name": "amount",
          "type": "uint256"
        }
      ],
      "name": "deposited",
      "type": "event"
    },
    {
      "inputs": [
        {
          "internalType": "uint256",
          "name": "",
          "type": "uint256"
        }
      ],
      "name": "TxHistoryList",
      "outputs": [
        {
          "internalType": "uint8",
          "name": "txType",
          "type": "uint8"
        },
        {
          "internalType": "address",
          "name": "from",
          "type": "address"
        },
        {
          "internalType": "address",
          "name": "to",
          "type": "address"
        },
        {
          "internalType": "uint256",
          "name": "amount",
          "type": "uint256"
        }
      ],
      "stateMutability": "view",
      "type": "function"
    },
    {
      "inputs": [
        {
          "internalType": "uint256",
          "name": "_amt",
          "type": "uint256"
        },
        {
          "internalType": "address",
          "name": "_to",
          "type": "address"
        },
        {
          "internalType": "address",
          "name": "_from",
          "type": "address"
        }
      ],
      "name": "Withdraw",
      "outputs": [],
      "stateMutability": "nonpayable",
      "type": "function"
    },
    {
      "inputs": [
        {
          "internalType": "uint256",
          "name": "_amt",
          "type": "uint256"
        }
      ],
      "name": "deposit",
      "outputs": [],
      "stateMutability": "payable",
      "type": "function"
    },
    {
      "inputs": [
        {
          "internalType": "address",
          "name": "",
          "type": "address"
        }
      ],
      "name": "deposits",
      "outputs": [
        {
          "internalType": "uint256",
          "name": "",
          "type": "uint256"
        }
      ],
      "stateMutability": "view",
      "type": "function"
    },
    {
      "inputs": [
        {
          "internalType": "address",
          "name": "",
          "type": "address"
        }
      ],
      "name": "isWhitelisted",
      "outputs": [
        {
          "internalType": "bool",
          "name": "",
          "type": "bool"
        }
      ],
      "stateMutability": "view",
      "type": "function"
    },
    {
      "inputs": [],
      "name": "txCount",
      "outputs": [
        {
          "internalType": "uint256",
          "name": "",
          "type": "uint256"
        }
      ],
      "stateMutability": "view",
      "type": "function"
    },
    {
      "inputs": [
        {
          "internalType": "address",
          "name": "_addr",
          "type": "address"
        }
      ],
      "name": "whitelistAddr",
      "outputs": [],
      "stateMutability": "nonpayable",
      "type": "function"
    }
  ],
  "bytecode": "0x6080604052348015600f57600080fd5b50610eb68061001f6000396000f3fe6080604052600436106100705760003560e01c8063a51bb7c21161004e578063a51bb7c214610106578063b6b55f251461012f578063f33164c21461014b578063fc7e286d1461018b57610070565b8063080a57f9146100755780633af32abf1461009e5780633c540687146100db575b600080fd5b34801561008157600080fd5b5061009c60048036038101906100979190610a55565b6101c8565b005b3480156100aa57600080fd5b506100c560048036038101906100c09190610a55565b6102f1565b6040516100d29190610a9d565b60405180910390f35b3480156100e757600080fd5b506100f0610311565b6040516100fd9190610ad1565b60405180910390f35b34801561011257600080fd5b5061012d60048036038101906101289190610b18565b610317565b005b61014960048036038101906101449190610b6b565b6106d7565b005b34801561015757600080fd5b50610172600480360381019061016d9190610b6b565b61095d565b6040516101829493929190610bc3565b60405180910390f35b34801561019757600080fd5b506101b260048036038101906101ad9190610a55565b6109da565b6040516101bf9190610ad1565b60405180910390f35b60008060003373ffffffffffffffffffffffffffffffffffffffff1673ffffffffffffffffffffffffffffffffffffffff1681526020019081526020016000205411610249576040517f08c379a000000000000000000000000000000000000000000000000000000000815260040161024090610c65565b60405180910390fd5b60018060008373ffffffffffffffffffffffffffffffffffffffff1673ffffffffffffffffffffffffffffffffffffffff16815260200190815260200160002060006101000a81548160ff0219169083151502179055503373ffffffffffffffffffffffffffffffffffffffff167f6661a7108aecd07864384529117d96c319c1163e3010c01390f6b704726e07de826040516102e69190610c85565b60405180910390a250565b60016020528060005260406000206000915054906101000a900460ff1681565b60025481565b60011515600160003373ffffffffffffffffffffffffffffffffffffffff1673ffffffffffffffffffffffffffffffffffffffff16815260200190815260200160002060009054906101000a900460ff161515146103aa576040517f08c379a00000000000000000000000000000000000000000000000000000000081526004016103a190610cec565b60405180910390fd5b60008060008373ffffffffffffffffffffffffffffffffffffffff1673ffffffffffffffffffffffffffffffffffffffff168152602001908152602001600020541161042b576040517f08c379a000000000000000000000000000000000000000000000000000000000815260040161042290610c65565b60405180910390fd5b826000808373ffffffffffffffffffffffffffffffffffffffff1673ffffffffffffffffffffffffffffffffffffffff1681526020019081526020016000205410156104ac576040517f08c379a00000000000000000000000000000000000000000000000000000000081526004016104a390610c65565b60405180910390fd5b826000808373ffffffffffffffffffffffffffffffffffffffff1673ffffffffffffffffffffffffffffffffffffffff16815260200190815260200160002060008282546104fa9190610d3b565b925050819055506040518060800160405280600260ff1681526020013373ffffffffffffffffffffffffffffffffffffffff1681526020018373ffffffffffffffffffffffffffffffffffffffff1681526020018481525060036000600254815260200190815260200160002060008201518160000160006101000a81548160ff021916908360ff16021790555060208201518160000160016101000a81548173ffffffffffffffffffffffffffffffffffffffff021916908373ffffffffffffffffffffffffffffffffffffffff16021790555060408201518160010160006101000a81548173ffffffffffffffffffffffffffffffffffffffff021916908373ffffffffffffffffffffffffffffffffffffffff160217905550606082015181600201559050506002600081548092919061063690610d6f565b91905055508173ffffffffffffffffffffffffffffffffffffffff166108fc849081150290604051600060405180830381858888f19350505050158015610681573d6000803e3d6000fd5b503373ffffffffffffffffffffffffffffffffffffffff167fd1c19fbcd4551a5edfb66d43d2e337c04837afda3482b42bdf569a8fccdae5fb83856040516106ca929190610db7565b60405180910390a2505050565b6000811180156106e657503481145b610725576040517f08c379a000000000000000000000000000000000000000000000000000000000815260040161071c90610e2c565b60405180910390fd5b806000803373ffffffffffffffffffffffffffffffffffffffff1673ffffffffffffffffffffffffffffffffffffffff16815260200190815260200160002060008282546107739190610e4c565b9250508190555060018060003373ffffffffffffffffffffffffffffffffffffffff1673ffffffffffffffffffffffffffffffffffffffff16815260200190815260200160002060006101000a81548160ff0219169083151502179055506040518060800160405280600160ff1681526020013373ffffffffffffffffffffffffffffffffffffffff1681526020013073ffffffffffffffffffffffffffffffffffffffff1681526020018281525060036000600254815260200190815260200160002060008201518160000160006101000a81548160ff021916908360ff16021790555060208201518160000160016101000a81548173ffffffffffffffffffffffffffffffffffffffff021916908373ffffffffffffffffffffffffffffffffffffffff16021790555060408201518160010160006101000a81548173ffffffffffffffffffffffffffffffffffffffff021916908373ffffffffffffffffffffffffffffffffffffffff160217905550606082015181600201559050506002600081548092919061090690610d6f565b91905055503373ffffffffffffffffffffffffffffffffffffffff167e8fa12fdef5e29f599717a6d129ca52c2d8a902498312eab6a78c6090b8e8e03083604051610952929190610db7565b60405180910390a250565b60036020528060005260406000206000915090508060000160009054906101000a900460ff16908060000160019054906101000a900473ffffffffffffffffffffffffffffffffffffffff16908060010160009054906101000a900473ffffffffffffffffffffffffffffffffffffffff16908060020154905084565b60006020528060005260406000206000915090505481565b600080fd5b600073ffffffffffffffffffffffffffffffffffffffff82169050919050565b6000610a22826109f7565b9050919050565b610a3281610a17565b8114610a3d57600080fd5b50565b600081359050610a4f81610a29565b92915050565b600060208284031215610a6b57610a6a6109f2565b5b6000610a7984828501610a40565b91505092915050565b60008115159050919050565b610a9781610a82565b82525050565b6000602082019050610ab26000830184610a8e565b92915050565b6000819050919050565b610acb81610ab8565b82525050565b6000602082019050610ae66000830184610ac2565b92915050565b610af581610ab8565b8114610b0057600080fd5b50565b600081359050610b1281610aec565b92915050565b600080600060608486031215610b3157610b306109f2565b5b6000610b3f86828701610b03565b9350506020610b5086828701610a40565b9250506040610b6186828701610a40565b9150509250925092565b600060208284031215610b8157610b806109f2565b5b6000610b8f84828501610b03565b91505092915050565b600060ff82169050919050565b610bae81610b98565b82525050565b610bbd81610a17565b82525050565b6000608082019050610bd86000830187610ba5565b610be56020830186610bb4565b610bf26040830185610bb4565b610bff6060830184610ac2565b95945050505050565b600082825260208201905092915050565b7f4f5443203a20596f7520646f6e74206861766520656e6f7567682066756e6473600082015250565b6000610c4f602083610c08565b9150610c5a82610c19565b602082019050919050565b60006020820190508181036000830152610c7e81610c42565b9050919050565b6000602082019050610c9a6000830184610bb4565b92915050565b7f4e6f742057686974656c69737465640000000000000000000000000000000000600082015250565b6000610cd6600f83610c08565b9150610ce182610ca0565b602082019050919050565b60006020820190508181036000830152610d0581610cc9565b9050919050565b7f4e487b7100000000000000000000000000000000000000000000000000000000600052601160045260246000fd5b6000610d4682610ab8565b9150610d5183610ab8565b9250828203905081811115610d6957610d68610d0c565b5b92915050565b6000610d7a82610ab8565b91507fffffffffffffffffffffffffffffffffffffffffffffffffffffffffffffffff8203610dac57610dab610d0c565b5b600182019050919050565b6000604082019050610dcc6000830185610bb4565b610dd96020830184610ac2565b9392505050565b7f45544820416d6f756e74204572726f7200000000000000000000000000000000600082015250565b6000610e16601083610c08565b9150610e2182610de0565b602082019050919050565b60006020820190508181036000830152610e4581610e09565b9050919050565b6000610e5782610ab8565b9150610e6283610ab8565b9250828201905080821115610e7a57610e79610d0c565b5b9291505056fea26469706673582212208a4689eaf5d89162266cf9c1648d314d05987758a720f39cbb8f1651b020abe564736f6c634300081b0033",
  "linkReferences": {},
  "deployedLinkReferences": {}
}