{
  "_format": "hh-sol-artifact-1",
  "contractName": "OTC",
  "sourceName": "contracts/OTC.sol",
  "abi": [
    {
      "anonymous": false,
      "inputs": [
        {
          "indexed": true,
          "internalType": "address",
          "name": "by",
          "type": "address"
        },
        {
          "indexed": false,
          "internalType": "address",
          "name": "to",
          "type": "address"
        }
      ],
      "name": "Whitelisted",
      "type": "event"
    },
    {
      "anonymous": false,
      "inputs": [
        {
          "indexed": true,
          "internalType": "address",
          "name": "from",
          "type": "address"
        },
        {
          "indexed": false,
          "internalType": "address",
          "name": "to",
          "type": "address"
        },
        {
          "indexed": false,
          "internalType": "uint256",
          "name": "amount",
          "type": "uint256"
        }
      ],
      "name": "Withdrawn",
      "type": "event"
    },
    {
      "anonymous": false,
      "inputs": [
        {
          "indexed": true,
          "internalType": "address",
          "name": "from",
          "type": "address"
        },
        {
          "indexed": false,
          "internalType": "address",
          "name": "to",
          "type": "address"
        },
        {
          "indexed": false,
          "internalType": "uint256",
          "name": "amount",
          "type": "uint256"
        }
      ],
      "name": "deposited",
      "type": "event"
    },
    {
      "inputs": [
        {
          "internalType": "uint256",
          "name": "",
          "type": "uint256"
        }
      ],
      "name": "TxHistoryList",
      "outputs": [
        {
          "internalType": "uint8",
          "name": "txType",
          "type": "uint8"
        },
        {
          "internalType": "address",
          "name": "from",
          "type": "address"
        },
        {
          "internalType": "address",
          "name": "to",
          "type": "address"
        },
        {
          "internalType": "uint256",
          "name": "amount",
          "type": "uint256"
        }
      ],
      "stateMutability": "view",
      "type": "function"
    },
    {
      "inputs": [
        {
          "internalType": "uint256",
          "name": "_amt",
          "type": "uint256"
        },
        {
          "internalType": "address",
          "name": "_to",
          "type": "address"
        }
      ],
      "name": "Withdraw",
      "outputs": [],
      "stateMutability": "nonpayable",
      "type": "function"
    },
    {
      "inputs": [
        {
          "internalType": "address",
          "name": "",
          "type": "address"
        }
      ],
      "name": "deposits",
      "outputs": [
        {
          "internalType": "uint256",
          "name": "",
          "type": "uint256"
        }
      ],
      "stateMutability": "view",
      "type": "function"
    },
    {
      "inputs": [
        {
          "internalType": "uint256",
          "name": "_amt",
          "type": "uint256"
        }
      ],
      "name": "depost",
      "outputs": [],
      "stateMutability": "payable",
      "type": "function"
    },
    {
      "inputs": [
        {
          "internalType": "address",
          "name": "",
          "type": "address"
        }
      ],
      "name": "isWhitelisted",
      "outputs": [
        {
          "internalType": "bool",
          "name": "",
          "type": "bool"
        }
      ],
      "stateMutability": "view",
      "type": "function"
    },
    {
      "inputs": [],
      "name": "txCount",
      "outputs": [
        {
          "internalType": "uint256",
          "name": "",
          "type": "uint256"
        }
      ],
      "stateMutability": "view",
      "type": "function"
    },
    {
      "inputs": [
        {
          "internalType": "address",
          "name": "_addr",
          "type": "address"
        }
      ],
      "name": "whitelistAddr",
      "outputs": [],
      "stateMutability": "nonpayable",
      "type": "function"
    }
  ],
  "bytecode": "0x6080604052348015600f57600080fd5b50610da08061001f6000396000f3fe6080604052600436106100705760003560e01c80638353ffca1161004e5780638353ffca14610106578063e5d2f1321461012f578063f33164c21461014b578063fc7e286d1461018b57610070565b8063080a57f9146100755780633af32abf1461009e5780633c540687146100db575b600080fd5b34801561008157600080fd5b5061009c60048036038101906100979190610952565b6101c8565b005b3480156100aa57600080fd5b506100c560048036038101906100c09190610952565b6102f1565b6040516100d2919061099a565b60405180910390f35b3480156100e757600080fd5b506100f0610311565b6040516100fd91906109ce565b60405180910390f35b34801561011257600080fd5b5061012d60048036038101906101289190610a15565b610317565b005b61014960048036038101906101449190610a55565b6105d4565b005b34801561015757600080fd5b50610172600480360381019061016d9190610a55565b61085a565b6040516101829493929190610aad565b60405180910390f35b34801561019757600080fd5b506101b260048036038101906101ad9190610952565b6108d7565b6040516101bf91906109ce565b60405180910390f35b60008060003373ffffffffffffffffffffffffffffffffffffffff1673ffffffffffffffffffffffffffffffffffffffff1681526020019081526020016000205411610249576040517f08c379a000000000000000000000000000000000000000000000000000000000815260040161024090610b4f565b60405180910390fd5b60018060008373ffffffffffffffffffffffffffffffffffffffff1673ffffffffffffffffffffffffffffffffffffffff16815260200190815260200160002060006101000a81548160ff0219169083151502179055503373ffffffffffffffffffffffffffffffffffffffff167f6661a7108aecd07864384529117d96c319c1163e3010c01390f6b704726e07de826040516102e69190610b6f565b60405180910390a250565b60016020528060005260406000206000915054906101000a900460ff1681565b60025481565b60011515600160003373ffffffffffffffffffffffffffffffffffffffff1673ffffffffffffffffffffffffffffffffffffffff16815260200190815260200160002060009054906101000a900460ff161515146103aa576040517f08c379a00000000000000000000000000000000000000000000000000000000081526004016103a190610bd6565b60405180910390fd5b816000808373ffffffffffffffffffffffffffffffffffffffff1673ffffffffffffffffffffffffffffffffffffffff16815260200190815260200160002060008282546103f89190610c25565b925050819055506040518060800160405280600260ff1681526020013373ffffffffffffffffffffffffffffffffffffffff1681526020018273ffffffffffffffffffffffffffffffffffffffff1681526020018381525060036000600254815260200190815260200160002060008201518160000160006101000a81548160ff021916908360ff16021790555060208201518160000160016101000a81548173ffffffffffffffffffffffffffffffffffffffff021916908373ffffffffffffffffffffffffffffffffffffffff16021790555060408201518160010160006101000a81548173ffffffffffffffffffffffffffffffffffffffff021916908373ffffffffffffffffffffffffffffffffffffffff160217905550606082015181600201559050506002600081548092919061053490610c59565b91905055508073ffffffffffffffffffffffffffffffffffffffff166108fc839081150290604051600060405180830381858888f1935050505015801561057f573d6000803e3d6000fd5b503373ffffffffffffffffffffffffffffffffffffffff167fd1c19fbcd4551a5edfb66d43d2e337c04837afda3482b42bdf569a8fccdae5fb82846040516105c8929190610ca1565b60405180910390a25050565b6000811180156105e357503481145b610622576040517f08c379a000000000000000000000000000000000000000000000000000000000815260040161061990610d16565b60405180910390fd5b806000803373ffffffffffffffffffffffffffffffffffffffff1673ffffffffffffffffffffffffffffffffffffffff16815260200190815260200160002060008282546106709190610d36565b9250508190555060018060003373ffffffffffffffffffffffffffffffffffffffff1673ffffffffffffffffffffffffffffffffffffffff16815260200190815260200160002060006101000a81548160ff0219169083151502179055506040518060800160405280600160ff1681526020013373ffffffffffffffffffffffffffffffffffffffff1681526020013073ffffffffffffffffffffffffffffffffffffffff1681526020018281525060036000600254815260200190815260200160002060008201518160000160006101000a81548160ff021916908360ff16021790555060208201518160000160016101000a81548173ffffffffffffffffffffffffffffffffffffffff021916908373ffffffffffffffffffffffffffffffffffffffff16021790555060408201518160010160006101000a81548173ffffffffffffffffffffffffffffffffffffffff021916908373ffffffffffffffffffffffffffffffffffffffff160217905550606082015181600201559050506002600081548092919061080390610c59565b91905055503373ffffffffffffffffffffffffffffffffffffffff167e8fa12fdef5e29f599717a6d129ca52c2d8a902498312eab6a78c6090b8e8e0308360405161084f929190610ca1565b60405180910390a250565b60036020528060005260406000206000915090508060000160009054906101000a900460ff16908060000160019054906101000a900473ffffffffffffffffffffffffffffffffffffffff16908060010160009054906101000a900473ffffffffffffffffffffffffffffffffffffffff16908060020154905084565b60006020528060005260406000206000915090505481565b600080fd5b600073ffffffffffffffffffffffffffffffffffffffff82169050919050565b600061091f826108f4565b9050919050565b61092f81610914565b811461093a57600080fd5b50565b60008135905061094c81610926565b92915050565b600060208284031215610968576109676108ef565b5b60006109768482850161093d565b91505092915050565b60008115159050919050565b6109948161097f565b82525050565b60006020820190506109af600083018461098b565b92915050565b6000819050919050565b6109c8816109b5565b82525050565b60006020820190506109e360008301846109bf565b92915050565b6109f2816109b5565b81146109fd57600080fd5b50565b600081359050610a0f816109e9565b92915050565b60008060408385031215610a2c57610a2b6108ef565b5b6000610a3a85828601610a00565b9250506020610a4b8582860161093d565b9150509250929050565b600060208284031215610a6b57610a6a6108ef565b5b6000610a7984828501610a00565b91505092915050565b600060ff82169050919050565b610a9881610a82565b82525050565b610aa781610914565b82525050565b6000608082019050610ac26000830187610a8f565b610acf6020830186610a9e565b610adc6040830185610a9e565b610ae960608301846109bf565b95945050505050565b600082825260208201905092915050565b7f4f5443203a20596f7520646f6e74206861766520656e6f7567682066696e6473600082015250565b6000610b39602083610af2565b9150610b4482610b03565b602082019050919050565b60006020820190508181036000830152610b6881610b2c565b9050919050565b6000602082019050610b846000830184610a9e565b92915050565b7f4e6f7420576869746c6973746564000000000000000000000000000000000000600082015250565b6000610bc0600e83610af2565b9150610bcb82610b8a565b602082019050919050565b60006020820190508181036000830152610bef81610bb3565b9050919050565b7f4e487b7100000000000000000000000000000000000000000000000000000000600052601160045260246000fd5b6000610c30826109b5565b9150610c3b836109b5565b9250828203905081811115610c5357610c52610bf6565b5b92915050565b6000610c64826109b5565b91507fffffffffffffffffffffffffffffffffffffffffffffffffffffffffffffffff8203610c9657610c95610bf6565b5b600182019050919050565b6000604082019050610cb66000830185610a9e565b610cc360208301846109bf565b9392505050565b7f45544820416d6f756e74204572726f7200000000000000000000000000000000600082015250565b6000610d00601083610af2565b9150610d0b82610cca565b602082019050919050565b60006020820190508181036000830152610d2f81610cf3565b9050919050565b6000610d41826109b5565b9150610d4c836109b5565b9250828201905080821115610d6457610d63610bf6565b5b9291505056fea264697066735822122034f1050f22cb4df6e1a3a6c849656933a94a6444b9de6468323635579f3465a864736f6c634300081b0033",
  "linkReferences": {},
  "deployedLinkReferences": {}
}